{
  "_format": "hh-sol-artifact-1",
  "contractName": "MyEpicNFT",
  "sourceName": "contracts/MyEpicNFT.sol",
  "abi": [
    {
      "inputs": [],
      "stateMutability": "nonpayable",
      "type": "constructor"
    },
    {
      "anonymous": false,
      "inputs": [
        {
          "indexed": true,
          "internalType": "address",
          "name": "owner",
          "type": "address"
        },
        {
          "indexed": true,
          "internalType": "address",
          "name": "approved",
          "type": "address"
        },
        {
          "indexed": true,
          "internalType": "uint256",
          "name": "tokenId",
          "type": "uint256"
        }
      ],
      "name": "Approval",
      "type": "event"
    },
    {
      "anonymous": false,
      "inputs": [
        {
          "indexed": true,
          "internalType": "address",
          "name": "owner",
          "type": "address"
        },
        {
          "indexed": true,
          "internalType": "address",
          "name": "operator",
          "type": "address"
        },
        {
          "indexed": false,
          "internalType": "bool",
          "name": "approved",
          "type": "bool"
        }
      ],
      "name": "ApprovalForAll",
      "type": "event"
    },
    {
      "anonymous": false,
      "inputs": [
        {
          "indexed": false,
          "internalType": "address",
          "name": "sender",
          "type": "address"
        },
        {
          "indexed": false,
          "internalType": "uint256",
          "name": "tokenId",
          "type": "uint256"
        }
      ],
      "name": "NewEpicNFTMinted",
      "type": "event"
    },
    {
      "anonymous": false,
      "inputs": [
        {
          "indexed": true,
          "internalType": "address",
          "name": "from",
          "type": "address"
        },
        {
          "indexed": true,
          "internalType": "address",
          "name": "to",
          "type": "address"
        },
        {
          "indexed": true,
          "internalType": "uint256",
          "name": "tokenId",
          "type": "uint256"
        }
      ],
      "name": "Transfer",
      "type": "event"
    },
    {
      "inputs": [
        {
          "internalType": "address",
          "name": "to",
          "type": "address"
        },
        {
          "internalType": "uint256",
          "name": "tokenId",
          "type": "uint256"
        }
      ],
      "name": "approve",
      "outputs": [],
      "stateMutability": "nonpayable",
      "type": "function"
    },
    {
      "inputs": [
        {
          "internalType": "address",
          "name": "owner",
          "type": "address"
        }
      ],
      "name": "balanceOf",
      "outputs": [
        {
          "internalType": "uint256",
          "name": "",
          "type": "uint256"
        }
      ],
      "stateMutability": "view",
      "type": "function"
    },
    {
      "inputs": [],
      "name": "getAmountMinted",
      "outputs": [
        {
          "internalType": "uint256",
          "name": "",
          "type": "uint256"
        }
      ],
      "stateMutability": "view",
      "type": "function"
    },
    {
      "inputs": [
        {
          "internalType": "uint256",
          "name": "tokenId",
          "type": "uint256"
        }
      ],
      "name": "getApproved",
      "outputs": [
        {
          "internalType": "address",
          "name": "",
          "type": "address"
        }
      ],
      "stateMutability": "view",
      "type": "function"
    },
    {
      "inputs": [
        {
          "internalType": "address",
          "name": "owner",
          "type": "address"
        },
        {
          "internalType": "address",
          "name": "operator",
          "type": "address"
        }
      ],
      "name": "isApprovedForAll",
      "outputs": [
        {
          "internalType": "bool",
          "name": "",
          "type": "bool"
        }
      ],
      "stateMutability": "view",
      "type": "function"
    },
    {
      "inputs": [],
      "name": "makeAnEpicNFT",
      "outputs": [],
      "stateMutability": "nonpayable",
      "type": "function"
    },
    {
      "inputs": [],
      "name": "name",
      "outputs": [
        {
          "internalType": "string",
          "name": "",
          "type": "string"
        }
      ],
      "stateMutability": "view",
      "type": "function"
    },
    {
      "inputs": [
        {
          "internalType": "uint256",
          "name": "tokenId",
          "type": "uint256"
        }
      ],
      "name": "ownerOf",
      "outputs": [
        {
          "internalType": "address",
          "name": "",
          "type": "address"
        }
      ],
      "stateMutability": "view",
      "type": "function"
    },
    {
      "inputs": [
        {
          "internalType": "uint256",
          "name": "tokenId",
          "type": "uint256"
        }
      ],
      "name": "pickRandomColor",
      "outputs": [
        {
          "internalType": "string",
          "name": "",
          "type": "string"
        }
      ],
      "stateMutability": "view",
      "type": "function"
    },
    {
      "inputs": [
        {
          "internalType": "uint256",
          "name": "tokenId",
          "type": "uint256"
        }
      ],
      "name": "pickRandomFirstWord",
      "outputs": [
        {
          "internalType": "string",
          "name": "",
          "type": "string"
        }
      ],
      "stateMutability": "view",
      "type": "function"
    },
    {
      "inputs": [
        {
          "internalType": "uint256",
          "name": "tokenId",
          "type": "uint256"
        }
      ],
      "name": "pickRandomSecondWord",
      "outputs": [
        {
          "internalType": "string",
          "name": "",
          "type": "string"
        }
      ],
      "stateMutability": "view",
      "type": "function"
    },
    {
      "inputs": [
        {
          "internalType": "uint256",
          "name": "tokenId",
          "type": "uint256"
        }
      ],
      "name": "pickRandomThirdWord",
      "outputs": [
        {
          "internalType": "string",
          "name": "",
          "type": "string"
        }
      ],
      "stateMutability": "view",
      "type": "function"
    },
    {
      "inputs": [
        {
          "internalType": "address",
          "name": "from",
          "type": "address"
        },
        {
          "internalType": "address",
          "name": "to",
          "type": "address"
        },
        {
          "internalType": "uint256",
          "name": "tokenId",
          "type": "uint256"
        }
      ],
      "name": "safeTransferFrom",
      "outputs": [],
      "stateMutability": "nonpayable",
      "type": "function"
    },
    {
      "inputs": [
        {
          "internalType": "address",
          "name": "from",
          "type": "address"
        },
        {
          "internalType": "address",
          "name": "to",
          "type": "address"
        },
        {
          "internalType": "uint256",
          "name": "tokenId",
          "type": "uint256"
        },
        {
          "internalType": "bytes",
          "name": "_data",
          "type": "bytes"
        }
      ],
      "name": "safeTransferFrom",
      "outputs": [],
      "stateMutability": "nonpayable",
      "type": "function"
    },
    {
      "inputs": [
        {
          "internalType": "address",
          "name": "operator",
          "type": "address"
        },
        {
          "internalType": "bool",
          "name": "approved",
          "type": "bool"
        }
      ],
      "name": "setApprovalForAll",
      "outputs": [],
      "stateMutability": "nonpayable",
      "type": "function"
    },
    {
      "inputs": [
        {
          "internalType": "bytes4",
          "name": "interfaceId",
          "type": "bytes4"
        }
      ],
      "name": "supportsInterface",
      "outputs": [
        {
          "internalType": "bool",
          "name": "",
          "type": "bool"
        }
      ],
      "stateMutability": "view",
      "type": "function"
    },
    {
      "inputs": [],
      "name": "symbol",
      "outputs": [
        {
          "internalType": "string",
          "name": "",
          "type": "string"
        }
      ],
      "stateMutability": "view",
      "type": "function"
    },
    {
      "inputs": [
        {
          "internalType": "uint256",
          "name": "tokenId",
          "type": "uint256"
        }
      ],
      "name": "tokenURI",
      "outputs": [
        {
          "internalType": "string",
          "name": "",
          "type": "string"
        }
      ],
      "stateMutability": "view",
      "type": "function"
    },
    {
      "inputs": [
        {
          "internalType": "address",
          "name": "from",
          "type": "address"
        },
        {
          "internalType": "address",
          "name": "to",
          "type": "address"
        },
        {
          "internalType": "uint256",
          "name": "tokenId",
          "type": "uint256"
        }
      ],
      "name": "transferFrom",
      "outputs": [],
      "stateMutability": "nonpayable",
      "type": "function"
    }
  ],
  "bytecode": "0x608060405260405180610100016040528060d38152602001620047a860d3913960089080519060200190620000369291906200082c565b506040518060800160405280605681526020016200487b6056913960099080519060200190620000689291906200082c565b506040518060c001604052806040518060400160405280600681526020017f4b656262656c000000000000000000000000000000000000000000000000000081525081526020016040518060400160405280600581526020017f477265746100000000000000000000000000000000000000000000000000000081525081526020016040518060400160405280600781526020017f537665726967650000000000000000000000000000000000000000000000000081525081526020016040518060400160405280600581526020017f536f73736500000000000000000000000000000000000000000000000000000081525081526020016040518060400160405280600481526020017f566173610000000000000000000000000000000000000000000000000000000081525081526020016040518060400160405280600781526020017f426f6e6a6f757200000000000000000000000000000000000000000000000000815250815250600a906006620001e6929190620008bd565b506040518060c001604052806040518060400160405280600481526020017f536b6f670000000000000000000000000000000000000000000000000000000081525081526020016040518060400160405280600381526020017f536567000000000000000000000000000000000000000000000000000000000081525081526020016040518060400160405280600781526020017f5472656b616e740000000000000000000000000000000000000000000000000081525081526020016040518060400160405280600481526020017f46616c750000000000000000000000000000000000000000000000000000000081525081526020016040518060400160405280600681526020017f4b616e4b616e000000000000000000000000000000000000000000000000000081525081526020016040518060400160405280600681526020017f506973746f6c0000000000000000000000000000000000000000000000000000815250815250600b90600662000364929190620008bd565b506040518060c001604052806040518060400160405280600381526020017f486574000000000000000000000000000000000000000000000000000000000081525081526020016040518060400160405280600481526020017f48656c670000000000000000000000000000000000000000000000000000000081525081526020016040518060400160405280600581526020017f42616e616e00000000000000000000000000000000000000000000000000000081525081526020016040518060400160405280600581526020017f486572726500000000000000000000000000000000000000000000000000000081525081526020016040518060400160405280600581526020017f4b72616b6500000000000000000000000000000000000000000000000000000081525081526020016040518060400160405280600481526020017f4f72726500000000000000000000000000000000000000000000000000000000815250815250600c906006620004e2929190620008bd565b506040518060c001604052806040518060400160405280600381526020017f726564000000000000000000000000000000000000000000000000000000000081525081526020016040518060400160405280600781526020017f233038433241380000000000000000000000000000000000000000000000000081525081526020016040518060400160405280600581526020017f626c61636b00000000000000000000000000000000000000000000000000000081525081526020016040518060400160405280600681526020017f79656c6c6f77000000000000000000000000000000000000000000000000000081525081526020016040518060400160405280600481526020017f626c75650000000000000000000000000000000000000000000000000000000081525081526020016040518060400160405280600581526020017f677265656e000000000000000000000000000000000000000000000000000000815250815250600d90600662000660929190620008bd565b503480156200066e57600080fd5b506040518060400160405280600981526020017f5371756172654e465400000000000000000000000000000000000000000000008152506040518060400160405280600681526020017f53515541524500000000000000000000000000000000000000000000000000008152508160009080519060200190620006f39291906200082c565b5080600190805190602001906200070c9291906200082c565b5050506200075a6040518060400160405280601e81526020017f54686973206973206d79204e465420636f6e74726163742e20576f61682100008152506200076060201b6200141b1760201c565b62000ade565b6200080081604051602401620007779190620009f2565b6040516020818303038152906040527f41304fac000000000000000000000000000000000000000000000000000000007bffffffffffffffffffffffffffffffffffffffffffffffffffffffff19166020820180517bffffffffffffffffffffffffffffffffffffffffffffffffffffffff83818316178352505050506200080360201b60201c565b50565b60008151905060006a636f6e736f6c652e6c6f679050602083016000808483855afa5050505050565b8280546200083a9062000a68565b90600052602060002090601f0160209004810192826200085e5760008555620008aa565b82601f106200087957805160ff1916838001178555620008aa565b82800160010185558215620008aa579182015b82811115620008a95782518255916020019190600101906200088c565b5b509050620008b9919062000924565b5090565b82805482825590600052602060002090810192821562000911579160200282015b8281111562000910578251829080519060200190620008ff9291906200082c565b5091602001919060010190620008de565b5b50905062000920919062000943565b5090565b5b808211156200093f57600081600090555060010162000925565b5090565b5b808211156200096757600081816200095d91906200096b565b5060010162000944565b5090565b508054620009799062000a68565b6000825580601f106200098d5750620009ae565b601f016020900490600052602060002090810190620009ad919062000924565b5b50565b6000620009be8262000a16565b620009ca818562000a21565b9350620009dc81856020860162000a32565b620009e78162000acd565b840191505092915050565b6000602082019050818103600083015262000a0e8184620009b1565b905092915050565b600081519050919050565b600082825260208201905092915050565b60005b8381101562000a5257808201518184015260208101905062000a35565b8381111562000a62576000848401525b50505050565b6000600282049050600182168062000a8157607f821691505b6020821081141562000a985762000a9762000a9e565b5b50919050565b7f4e487b7100000000000000000000000000000000000000000000000000000000600052602260045260246000fd5b6000601f19601f8301169050919050565b613cba8062000aee6000396000f3fe608060405234801561001057600080fd5b50600436106101215760003560e01c806370a08231116100ad578063c575757a11610071578063c575757a1461033e578063c87b56dd1461036e578063de9d132f1461039e578063e777df20146103a8578063e985e9c5146103c657610121565b806370a082311461028857806395d89b41146102b8578063a22cb465146102d6578063b187301f146102f2578063b88d4fde1461032257610121565b806323b872dd116100f457806323b872dd146101c05780632de38d68146101dc57806342842e0e1461020c578063514dc8c6146102285780636352211e1461025857610121565b806301ffc9a71461012657806306fdde0314610156578063081812fc14610174578063095ea7b3146101a4575b600080fd5b610140600480360381019061013b91906126ae565b6103f6565b60405161014d9190612e3a565b60405180910390f35b61015e6104d8565b60405161016b9190612e55565b60405180910390f35b61018e60048036038101906101899190612700565b61056a565b60405161019b9190612daa565b60405180910390f35b6101be60048036038101906101b99190612672565b6105ef565b005b6101da60048036038101906101d5919061256c565b610707565b005b6101f660048036038101906101f19190612700565b610767565b6040516102039190612e55565b60405180910390f35b6102266004803603810190610221919061256c565b610885565b005b610242600480360381019061023d9190612700565b6108a5565b60405161024f9190612e55565b60405180910390f35b610272600480360381019061026d9190612700565b6109c3565b60405161027f9190612daa565b60405180910390f35b6102a2600480360381019061029d9190612507565b610a75565b6040516102af91906130d5565b60405180910390f35b6102c0610b2d565b6040516102cd9190612e55565b60405180910390f35b6102f060048036038101906102eb9190612636565b610bbf565b005b61030c60048036038101906103079190612700565b610d40565b6040516103199190612e55565b60405180910390f35b61033c600480360381019061033791906125bb565b610e5e565b005b61035860048036038101906103539190612700565b610ec0565b6040516103659190612e55565b60405180910390f35b61038860048036038101906103839190612700565b610fde565b6040516103959190612e55565b60405180910390f35b6103a6611130565b005b6103b0611376565b6040516103bd91906130d5565b60405180910390f35b6103e060048036038101906103db9190612530565b611387565b6040516103ed9190612e3a565b60405180910390f35b60007f80ac58cd000000000000000000000000000000000000000000000000000000007bffffffffffffffffffffffffffffffffffffffffffffffffffffffff1916827bffffffffffffffffffffffffffffffffffffffffffffffffffffffff191614806104c157507f5b5e139f000000000000000000000000000000000000000000000000000000007bffffffffffffffffffffffffffffffffffffffffffffffffffffffff1916827bffffffffffffffffffffffffffffffffffffffffffffffffffffffff1916145b806104d157506104d0826114b4565b5b9050919050565b6060600080546104e790613369565b80601f016020809104026020016040519081016040528092919081815260200182805461051390613369565b80156105605780601f1061053557610100808354040283529160200191610560565b820191906000526020600020905b81548152906001019060200180831161054357829003601f168201915b5050505050905090565b60006105758261151e565b6105b4576040517f08c379a00000000000000000000000000000000000000000000000000000000081526004016105ab90613035565b60405180910390fd5b6004600083815260200190815260200160002060009054906101000a900473ffffffffffffffffffffffffffffffffffffffff169050919050565b60006105fa826109c3565b90508073ffffffffffffffffffffffffffffffffffffffff168373ffffffffffffffffffffffffffffffffffffffff16141561066b576040517f08c379a000000000000000000000000000000000000000000000000000000000815260040161066290613095565b60405180910390fd5b8073ffffffffffffffffffffffffffffffffffffffff1661068a61158a565b73ffffffffffffffffffffffffffffffffffffffff1614806106b957506106b8816106b361158a565b611387565b5b6106f8576040517f08c379a00000000000000000000000000000000000000000000000000000000081526004016106ef90612f75565b60405180910390fd5b6107028383611592565b505050565b61071861071261158a565b8261164b565b610757576040517f08c379a000000000000000000000000000000000000000000000000000000000815260040161074e906130b5565b60405180910390fd5b610762838383611729565b505050565b6060600061079b61077784611985565b6040516020016107879190612d44565b604051602081830303815290604052611b32565b9050600a80549050816107ae9190613415565b9050600a81815481106107ea577f4e487b7100000000000000000000000000000000000000000000000000000000600052603260045260246000fd5b9060005260206000200180546107ff90613369565b80601f016020809104026020016040519081016040528092919081815260200182805461082b90613369565b80156108785780601f1061084d57610100808354040283529160200191610878565b820191906000526020600020905b81548152906001019060200180831161085b57829003601f168201915b5050505050915050919050565b6108a083838360405180602001604052806000815250610e5e565b505050565b606060006108d96108b584611985565b6040516020016108c59190612d88565b604051602081830303815290604052611b32565b9050600d80549050816108ec9190613415565b9050600d8181548110610928577f4e487b7100000000000000000000000000000000000000000000000000000000600052603260045260246000fd5b90600052602060002001805461093d90613369565b80601f016020809104026020016040519081016040528092919081815260200182805461096990613369565b80156109b65780601f1061098b576101008083540402835291602001916109b6565b820191906000526020600020905b81548152906001019060200180831161099957829003601f168201915b5050505050915050919050565b6000806002600084815260200190815260200160002060009054906101000a900473ffffffffffffffffffffffffffffffffffffffff169050600073ffffffffffffffffffffffffffffffffffffffff168173ffffffffffffffffffffffffffffffffffffffff161415610a6c576040517f08c379a0000000000000000000000000000000000000000000000000000000008152600401610a6390612fb5565b60405180910390fd5b80915050919050565b60008073ffffffffffffffffffffffffffffffffffffffff168273ffffffffffffffffffffffffffffffffffffffff161415610ae6576040517f08c379a0000000000000000000000000000000000000000000000000000000008152600401610add90612f95565b60405180910390fd5b600360008373ffffffffffffffffffffffffffffffffffffffff1673ffffffffffffffffffffffffffffffffffffffff168152602001908152602001600020549050919050565b606060018054610b3c90613369565b80601f0160208091040260200160405190810160405280929190818152602001828054610b6890613369565b8015610bb55780601f10610b8a57610100808354040283529160200191610bb5565b820191906000526020600020905b815481529060010190602001808311610b9857829003601f168201915b5050505050905090565b610bc761158a565b73ffffffffffffffffffffffffffffffffffffffff168273ffffffffffffffffffffffffffffffffffffffff161415610c35576040517f08c379a0000000000000000000000000000000000000000000000000000000008152600401610c2c90612f35565b60405180910390fd5b8060056000610c4261158a565b73ffffffffffffffffffffffffffffffffffffffff1673ffffffffffffffffffffffffffffffffffffffff16815260200190815260200160002060008473ffffffffffffffffffffffffffffffffffffffff1673ffffffffffffffffffffffffffffffffffffffff16815260200190815260200160002060006101000a81548160ff0219169083151502179055508173ffffffffffffffffffffffffffffffffffffffff16610cef61158a565b73ffffffffffffffffffffffffffffffffffffffff167f17307eab39ab6107e8899845ad3d59bd9653f200f220920489ca2b5937696c3183604051610d349190612e3a565b60405180910390a35050565b60606000610d74610d5084611985565b604051602001610d609190612cdd565b604051602081830303815290604052611b32565b9050600b8054905081610d879190613415565b9050600b8181548110610dc3577f4e487b7100000000000000000000000000000000000000000000000000000000600052603260045260246000fd5b906000526020600020018054610dd890613369565b80601f0160208091040260200160405190810160405280929190818152602001828054610e0490613369565b8015610e515780601f10610e2657610100808354040283529160200191610e51565b820191906000526020600020905b815481529060010190602001808311610e3457829003601f168201915b5050505050915050919050565b610e6f610e6961158a565b8361164b565b610eae576040517f08c379a0000000000000000000000000000000000000000000000000000000008152600401610ea5906130b5565b60405180910390fd5b610eba84848484611b65565b50505050565b60606000610ef4610ed084611985565b604051602001610ee09190612cbb565b604051602081830303815290604052611b32565b9050600c8054905081610f079190613415565b9050600c8181548110610f43577f4e487b7100000000000000000000000000000000000000000000000000000000600052603260045260246000fd5b906000526020600020018054610f5890613369565b80601f0160208091040260200160405190810160405280929190818152602001828054610f8490613369565b8015610fd15780601f10610fa657610100808354040283529160200191610fd1565b820191906000526020600020905b815481529060010190602001808311610fb457829003601f168201915b5050505050915050919050565b6060610fe98261151e565b611028576040517f08c379a000000000000000000000000000000000000000000000000000000000815260040161101f90613015565b60405180910390fd5b600060066000848152602001908152602001600020805461104890613369565b80601f016020809104026020016040519081016040528092919081815260200182805461107490613369565b80156110c15780601f10611096576101008083540402835291602001916110c1565b820191906000526020600020905b8154815290600101906020018083116110a457829003601f168201915b5050505050905060006110d2611bc1565b90506000815114156110e857819250505061112b565b60008251111561111d578082604051602001611105929190612c1d565b6040516020818303038152906040529250505061112b565b61112684611bd8565b925050505b919050565b603161113c6007611c7f565b1061117c576040517f08c379a000000000000000000000000000000000000000000000000000000000815260040161117390612ed5565b60405180910390fd5b60006111886007611c7f565b9050600061119582610767565b905060006111a283610d40565b905060006111af84610ec0565b905060008383836040516020016111c893929190612c41565b604051602081830303815290604052905060006111e4866108a5565b905060006008826009856040516020016112019493929190612c72565b604051602081830303815290604052905060006112468461122184611c8d565b604051602001611232929190612cff565b604051602081830303815290604052611c8d565b905060008160405160200161125b9190612d66565b60405160208183030381529060405290506112aa6040518060400160405280601581526020017f0a2d2d2d2d2d2d2d2d2d2d2d2d2d2d2d2d2d2d2d2d000000000000000000000081525061141b565b6112b38161141b565b6112f16040518060400160405280601581526020017f2d2d2d2d2d2d2d2d2d2d2d2d2d2d2d2d2d2d2d2d0a000000000000000000000081525061141b565b6112fb338a611e4b565b6113058982611e69565b611328604051806060016040528060258152602001613c20602591398a33611edd565b6113326007611f7c565b7febb98688741ffa4c7589bf325de30cf7becb63de567842e1ccdb6cb949fdc82c338a604051611363929190612e11565b60405180910390a1505050505050505050565b60006113826007611c7f565b905090565b6000600560008473ffffffffffffffffffffffffffffffffffffffff1673ffffffffffffffffffffffffffffffffffffffff16815260200190815260200160002060008373ffffffffffffffffffffffffffffffffffffffff1673ffffffffffffffffffffffffffffffffffffffff16815260200190815260200160002060009054906101000a900460ff16905092915050565b6114b18160405160240161142f9190612e55565b6040516020818303038152906040527f41304fac000000000000000000000000000000000000000000000000000000007bffffffffffffffffffffffffffffffffffffffffffffffffffffffff19166020820180517bffffffffffffffffffffffffffffffffffffffffffffffffffffffff8381831617835250505050611f92565b50565b60007f01ffc9a7000000000000000000000000000000000000000000000000000000007bffffffffffffffffffffffffffffffffffffffffffffffffffffffff1916827bffffffffffffffffffffffffffffffffffffffffffffffffffffffff1916149050919050565b60008073ffffffffffffffffffffffffffffffffffffffff166002600084815260200190815260200160002060009054906101000a900473ffffffffffffffffffffffffffffffffffffffff1673ffffffffffffffffffffffffffffffffffffffff1614159050919050565b600033905090565b816004600083815260200190815260200160002060006101000a81548173ffffffffffffffffffffffffffffffffffffffff021916908373ffffffffffffffffffffffffffffffffffffffff160217905550808273ffffffffffffffffffffffffffffffffffffffff16611605836109c3565b73ffffffffffffffffffffffffffffffffffffffff167f8c5be1e5ebec7d5bd14f71427d1e84f3dd0314c0f7b2291e5b200ac8c7c3b92560405160405180910390a45050565b60006116568261151e565b611695576040517f08c379a000000000000000000000000000000000000000000000000000000000815260040161168c90612f55565b60405180910390fd5b60006116a0836109c3565b90508073ffffffffffffffffffffffffffffffffffffffff168473ffffffffffffffffffffffffffffffffffffffff16148061170f57508373ffffffffffffffffffffffffffffffffffffffff166116f78461056a565b73ffffffffffffffffffffffffffffffffffffffff16145b80611720575061171f8185611387565b5b91505092915050565b8273ffffffffffffffffffffffffffffffffffffffff16611749826109c3565b73ffffffffffffffffffffffffffffffffffffffff161461179f576040517f08c379a000000000000000000000000000000000000000000000000000000000815260040161179690613055565b60405180910390fd5b600073ffffffffffffffffffffffffffffffffffffffff168273ffffffffffffffffffffffffffffffffffffffff16141561180f576040517f08c379a000000000000000000000000000000000000000000000000000000000815260040161180690612f15565b60405180910390fd5b61181a838383611fbb565b611825600082611592565b6001600360008573ffffffffffffffffffffffffffffffffffffffff1673ffffffffffffffffffffffffffffffffffffffff1681526020019081526020016000206000828254611875919061327f565b925050819055506001600360008473ffffffffffffffffffffffffffffffffffffffff1673ffffffffffffffffffffffffffffffffffffffff16815260200190815260200160002060008282546118cc919061319e565b92505081905550816002600083815260200190815260200160002060006101000a81548173ffffffffffffffffffffffffffffffffffffffff021916908373ffffffffffffffffffffffffffffffffffffffff160217905550808273ffffffffffffffffffffffffffffffffffffffff168473ffffffffffffffffffffffffffffffffffffffff167fddf252ad1be2c89b69c2b068fc378daa952ba7f163c4a11628f55a4df523b3ef60405160405180910390a4505050565b606060008214156119cd576040518060400160405280600181526020017f30000000000000000000000000000000000000000000000000000000000000008152509050611b2d565b600082905060005b600082146119ff5780806119e8906133cc565b915050600a826119f891906131f4565b91506119d5565b60008167ffffffffffffffff811115611a41577f4e487b7100000000000000000000000000000000000000000000000000000000600052604160045260246000fd5b6040519080825280601f01601f191660200182016040528015611a735781602001600182028036833780820191505090505b5090505b60008514611b2657600182611a8c919061327f565b9150600a85611a9b9190613415565b6030611aa7919061319e565b60f81b818381518110611ae3577f4e487b7100000000000000000000000000000000000000000000000000000000600052603260045260246000fd5b60200101907effffffffffffffffffffffffffffffffffffffffffffffffffffffffffffff1916908160001a905350600a85611b1f91906131f4565b9450611a77565b8093505050505b919050565b600081604051602001611b459190612c06565b6040516020818303038152906040528051906020012060001c9050919050565b611b70848484611729565b611b7c84848484611fc0565b611bbb576040517f08c379a0000000000000000000000000000000000000000000000000000000008152600401611bb290612eb5565b60405180910390fd5b50505050565b606060405180602001604052806000815250905090565b6060611be38261151e565b611c22576040517f08c379a0000000000000000000000000000000000000000000000000000000008152600401611c1990613075565b60405180910390fd5b6000611c2c611bc1565b90506000815111611c4c5760405180602001604052806000815250611c77565b80611c5684611985565b604051602001611c67929190612c1d565b6040516020818303038152906040525b915050919050565b600081600001549050919050565b60606000825190506000811415611cb65760405180602001604052806000815250915050611e46565b60006003600283611cc7919061319e565b611cd191906131f4565b6004611cdd9190613225565b90506000602082611cee919061319e565b67ffffffffffffffff811115611d2d577f4e487b7100000000000000000000000000000000000000000000000000000000600052604160045260246000fd5b6040519080825280601f01601f191660200182016040528015611d5f5781602001600182028036833780820191505090505b5090506000604051806060016040528060408152602001613c45604091399050600181016020830160005b86811015611e035760038101905062ffffff818a015116603f8160121c168401518060081b905060ff603f83600c1c1686015116810190508060081b905060ff603f8360061c1686015116810190508060081b905060ff603f831686015116810190508060e01b90508084526004840193505050611d8a565b506003860660018114611e1d5760028114611e2d57611e38565b613d3d60f01b6002830352611e38565b603d60f81b60018303525b508484525050819450505050505b919050565b611e65828260405180602001604052806000815250612157565b5050565b611e728261151e565b611eb1576040517f08c379a0000000000000000000000000000000000000000000000000000000008152600401611ea890612fd5565b60405180910390fd5b80600660008481526020019081526020016000209080519060200190611ed8929190612393565b505050565b611f77838383604051602401611ef593929190612e77565b6040516020818303038152906040527fe3849f79000000000000000000000000000000000000000000000000000000007bffffffffffffffffffffffffffffffffffffffffffffffffffffffff19166020820180517bffffffffffffffffffffffffffffffffffffffffffffffffffffffff8381831617835250505050611f92565b505050565b6001816000016000828254019250508190555050565b60008151905060006a636f6e736f6c652e6c6f679050602083016000808483855afa5050505050565b505050565b6000611fe18473ffffffffffffffffffffffffffffffffffffffff166121b2565b1561214a578373ffffffffffffffffffffffffffffffffffffffff1663150b7a0261200a61158a565b8786866040518563ffffffff1660e01b815260040161202c9493929190612dc5565b602060405180830381600087803b15801561204657600080fd5b505af192505050801561207757506040513d601f19601f8201168201806040525081019061207491906126d7565b60015b6120fa573d80600081146120a7576040519150601f19603f3d011682016040523d82523d6000602084013e6120ac565b606091505b506000815114156120f2576040517f08c379a00000000000000000000000000000000000000000000000000000000081526004016120e990612eb5565b60405180910390fd5b805181602001fd5b63150b7a0260e01b7bffffffffffffffffffffffffffffffffffffffffffffffffffffffff1916817bffffffffffffffffffffffffffffffffffffffffffffffffffffffff19161491505061214f565b600190505b949350505050565b61216183836121c5565b61216e6000848484611fc0565b6121ad576040517f08c379a00000000000000000000000000000000000000000000000000000000081526004016121a490612eb5565b60405180910390fd5b505050565b600080823b905060008111915050919050565b600073ffffffffffffffffffffffffffffffffffffffff168273ffffffffffffffffffffffffffffffffffffffff161415612235576040517f08c379a000000000000000000000000000000000000000000000000000000000815260040161222c90612ff5565b60405180910390fd5b61223e8161151e565b1561227e576040517f08c379a000000000000000000000000000000000000000000000000000000000815260040161227590612ef5565b60405180910390fd5b61228a60008383611fbb565b6001600360008473ffffffffffffffffffffffffffffffffffffffff1673ffffffffffffffffffffffffffffffffffffffff16815260200190815260200160002060008282546122da919061319e565b92505081905550816002600083815260200190815260200160002060006101000a81548173ffffffffffffffffffffffffffffffffffffffff021916908373ffffffffffffffffffffffffffffffffffffffff160217905550808273ffffffffffffffffffffffffffffffffffffffff16600073ffffffffffffffffffffffffffffffffffffffff167fddf252ad1be2c89b69c2b068fc378daa952ba7f163c4a11628f55a4df523b3ef60405160405180910390a45050565b82805461239f90613369565b90600052602060002090601f0160209004810192826123c15760008555612408565b82601f106123da57805160ff1916838001178555612408565b82800160010185558215612408579182015b828111156124075782518255916020019190600101906123ec565b5b5090506124159190612419565b5090565b5b8082111561243257600081600090555060010161241a565b5090565b600061244961244484613115565b6130f0565b90508281526020810184848401111561246157600080fd5b61246c848285613327565b509392505050565b60008135905061248381613bc3565b92915050565b60008135905061249881613bda565b92915050565b6000813590506124ad81613bf1565b92915050565b6000815190506124c281613bf1565b92915050565b600082601f8301126124d957600080fd5b81356124e9848260208601612436565b91505092915050565b60008135905061250181613c08565b92915050565b60006020828403121561251957600080fd5b600061252784828501612474565b91505092915050565b6000806040838503121561254357600080fd5b600061255185828601612474565b925050602061256285828601612474565b9150509250929050565b60008060006060848603121561258157600080fd5b600061258f86828701612474565b93505060206125a086828701612474565b92505060406125b1868287016124f2565b9150509250925092565b600080600080608085870312156125d157600080fd5b60006125df87828801612474565b94505060206125f087828801612474565b9350506040612601878288016124f2565b925050606085013567ffffffffffffffff81111561261e57600080fd5b61262a878288016124c8565b91505092959194509250565b6000806040838503121561264957600080fd5b600061265785828601612474565b925050602061266885828601612489565b9150509250929050565b6000806040838503121561268557600080fd5b600061269385828601612474565b92505060206126a4858286016124f2565b9150509250929050565b6000602082840312156126c057600080fd5b60006126ce8482850161249e565b91505092915050565b6000602082840312156126e957600080fd5b60006126f7848285016124b3565b91505092915050565b60006020828403121561271257600080fd5b6000612720848285016124f2565b91505092915050565b612732816132b3565b82525050565b612741816132c5565b82525050565b60006127528261315b565b61275c8185613171565b935061276c818560208601613336565b61277581613502565b840191505092915050565b600061278b82613166565b6127958185613182565b93506127a5818560208601613336565b6127ae81613502565b840191505092915050565b60006127c482613166565b6127ce8185613193565b93506127de818560208601613336565b80840191505092915050565b600081546127f781613369565b6128018186613193565b9450600182166000811461281c576001811461282d57612860565b60ff19831686528186019350612860565b61283685613146565b60005b8381101561285857815481890152600182019150602081019050612839565b838801955050505b50505092915050565b6000612876603283613182565b915061288182613513565b604082019050919050565b6000612899602d83613182565b91506128a482613562565b604082019050919050565b60006128bc601c83613182565b91506128c7826135b1565b602082019050919050565b60006128df600a83613193565b91506128ea826135da565b600a82019050919050565b6000612902602483613182565b915061290d82613603565b604082019050919050565b6000612925601983613182565b915061293082613652565b602082019050919050565b6000612948606383613193565b91506129538261367b565b606382019050919050565b600061296b600b83613193565b915061297682613716565b600b82019050919050565b600061298e602c83613182565b91506129998261373f565b604082019050919050565b60006129b1600d83613193565b91506129bc8261378e565b600d82019050919050565b60006129d4603883613182565b91506129df826137b7565b604082019050919050565b60006129f7602a83613182565b9150612a0282613806565b604082019050919050565b6000612a1a602983613182565b9150612a2582613855565b604082019050919050565b6000612a3d602e83613182565b9150612a48826138a4565b604082019050919050565b6000612a60600283613193565b9150612a6b826138f3565b600282019050919050565b6000612a83602083613182565b9150612a8e8261391c565b602082019050919050565b6000612aa6603183613182565b9150612ab182613945565b604082019050919050565b6000612ac9602c83613182565b9150612ad482613994565b604082019050919050565b6000612aec602983613182565b9150612af7826139e3565b604082019050919050565b6000612b0f602f83613182565b9150612b1a82613a32565b604082019050919050565b6000612b32600a83613193565b9150612b3d82613a81565b600a82019050919050565b6000612b55602183613182565b9150612b6082613aaa565b604082019050919050565b6000612b78600a83613193565b9150612b8382613af9565b600a82019050919050565b6000612b9b601d83613193565b9150612ba682613b22565b601d82019050919050565b6000612bbe603183613182565b9150612bc982613b4b565b604082019050919050565b6000612be1600583613193565b9150612bec82613b9a565b600582019050919050565b612c008161331d565b82525050565b6000612c1282846127b9565b915081905092915050565b6000612c2982856127b9565b9150612c3582846127b9565b91508190509392505050565b6000612c4d82866127b9565b9150612c5982856127b9565b9150612c6582846127b9565b9150819050949350505050565b6000612c7e82876127ea565b9150612c8a82866127b9565b9150612c9682856127ea565b9150612ca282846127b9565b9150612cad826129a4565b915081905095945050505050565b6000612cc6826128d2565b9150612cd282846127b9565b915081905092915050565b6000612ce88261295e565b9150612cf482846127b9565b915081905092915050565b6000612d0a82612b25565b9150612d1682856127b9565b9150612d218261293b565b9150612d2d82846127b9565b9150612d3882612a53565b91508190509392505050565b6000612d4f82612b6b565b9150612d5b82846127b9565b915081905092915050565b6000612d7182612b8e565b9150612d7d82846127b9565b915081905092915050565b6000612d9382612bd4565b9150612d9f82846127b9565b915081905092915050565b6000602082019050612dbf6000830184612729565b92915050565b6000608082019050612dda6000830187612729565b612de76020830186612729565b612df46040830185612bf7565b8181036060830152612e068184612747565b905095945050505050565b6000604082019050612e266000830185612729565b612e336020830184612bf7565b9392505050565b6000602082019050612e4f6000830184612738565b92915050565b60006020820190508181036000830152612e6f8184612780565b905092915050565b60006060820190508181036000830152612e918186612780565b9050612ea06020830185612bf7565b612ead6040830184612729565b949350505050565b60006020820190508181036000830152612ece81612869565b9050919050565b60006020820190508181036000830152612eee8161288c565b9050919050565b60006020820190508181036000830152612f0e816128af565b9050919050565b60006020820190508181036000830152612f2e816128f5565b9050919050565b60006020820190508181036000830152612f4e81612918565b9050919050565b60006020820190508181036000830152612f6e81612981565b9050919050565b60006020820190508181036000830152612f8e816129c7565b9050919050565b60006020820190508181036000830152612fae816129ea565b9050919050565b60006020820190508181036000830152612fce81612a0d565b9050919050565b60006020820190508181036000830152612fee81612a30565b9050919050565b6000602082019050818103600083015261300e81612a76565b9050919050565b6000602082019050818103600083015261302e81612a99565b9050919050565b6000602082019050818103600083015261304e81612abc565b9050919050565b6000602082019050818103600083015261306e81612adf565b9050919050565b6000602082019050818103600083015261308e81612b02565b9050919050565b600060208201905081810360008301526130ae81612b48565b9050919050565b600060208201905081810360008301526130ce81612bb1565b9050919050565b60006020820190506130ea6000830184612bf7565b92915050565b60006130fa61310b565b9050613106828261339b565b919050565b6000604051905090565b600067ffffffffffffffff8211156131305761312f6134d3565b5b61313982613502565b9050602081019050919050565b60008190508160005260206000209050919050565b600081519050919050565b600081519050919050565b600082825260208201905092915050565b600082825260208201905092915050565b600081905092915050565b60006131a98261331d565b91506131b48361331d565b9250827fffffffffffffffffffffffffffffffffffffffffffffffffffffffffffffffff038211156131e9576131e8613446565b5b828201905092915050565b60006131ff8261331d565b915061320a8361331d565b92508261321a57613219613475565b5b828204905092915050565b60006132308261331d565b915061323b8361331d565b9250817fffffffffffffffffffffffffffffffffffffffffffffffffffffffffffffffff048311821515161561327457613273613446565b5b828202905092915050565b600061328a8261331d565b91506132958361331d565b9250828210156132a8576132a7613446565b5b828203905092915050565b60006132be826132fd565b9050919050565b60008115159050919050565b60007fffffffff0000000000000000000000000000000000000000000000000000000082169050919050565b600073ffffffffffffffffffffffffffffffffffffffff82169050919050565b6000819050919050565b82818337600083830152505050565b60005b83811015613354578082015181840152602081019050613339565b83811115613363576000848401525b50505050565b6000600282049050600182168061338157607f821691505b60208210811415613395576133946134a4565b5b50919050565b6133a482613502565b810181811067ffffffffffffffff821117156133c3576133c26134d3565b5b80604052505050565b60006133d78261331d565b91507fffffffffffffffffffffffffffffffffffffffffffffffffffffffffffffffff82141561340a57613409613446565b5b600182019050919050565b60006134208261331d565b915061342b8361331d565b92508261343b5761343a613475565b5b828206905092915050565b7f4e487b7100000000000000000000000000000000000000000000000000000000600052601160045260246000fd5b7f4e487b7100000000000000000000000000000000000000000000000000000000600052601260045260246000fd5b7f4e487b7100000000000000000000000000000000000000000000000000000000600052602260045260246000fd5b7f4e487b7100000000000000000000000000000000000000000000000000000000600052604160045260246000fd5b6000601f19601f8301169050919050565b7f4552433732313a207472616e7366657220746f206e6f6e20455243373231526560008201527f63656976657220696d706c656d656e7465720000000000000000000000000000602082015250565b7f536f72727920746865206c696d697420686173206265656e207265616368656460008201527f20666f722074686973204e465400000000000000000000000000000000000000602082015250565b7f4552433732313a20746f6b656e20616c7265616479206d696e74656400000000600082015250565b7f54484952445f574f524400000000000000000000000000000000000000000000600082015250565b7f4552433732313a207472616e7366657220746f20746865207a65726f2061646460008201527f7265737300000000000000000000000000000000000000000000000000000000602082015250565b7f4552433732313a20617070726f766520746f2063616c6c657200000000000000600082015250565b7f222c20226465736372697074696f6e223a20224120686967686c79206163636c60008201527f61696d656420636f6c6c656374696f6e206f6620737175617265732e222c202260208201527f696d616765223a2022646174613a696d6167652f7376672b786d6c3b6261736560408201527f36342c0000000000000000000000000000000000000000000000000000000000606082015250565b7f5345434f4e445f574f5244000000000000000000000000000000000000000000600082015250565b7f4552433732313a206f70657261746f7220717565727920666f72206e6f6e657860008201527f697374656e7420746f6b656e0000000000000000000000000000000000000000602082015250565b7f3c2f746578743e3c2f7376673e00000000000000000000000000000000000000600082015250565b7f4552433732313a20617070726f76652063616c6c6572206973206e6f74206f7760008201527f6e6572206e6f7220617070726f76656420666f7220616c6c0000000000000000602082015250565b7f4552433732313a2062616c616e636520717565727920666f7220746865207a6560008201527f726f206164647265737300000000000000000000000000000000000000000000602082015250565b7f4552433732313a206f776e657220717565727920666f72206e6f6e657869737460008201527f656e7420746f6b656e0000000000000000000000000000000000000000000000602082015250565b7f45524337323155524953746f726167653a2055524920736574206f66206e6f6e60008201527f6578697374656e7420746f6b656e000000000000000000000000000000000000602082015250565b7f227d000000000000000000000000000000000000000000000000000000000000600082015250565b7f4552433732313a206d696e7420746f20746865207a65726f2061646472657373600082015250565b7f45524337323155524953746f726167653a2055524920717565727920666f722060008201527f6e6f6e6578697374656e7420746f6b656e000000000000000000000000000000602082015250565b7f4552433732313a20617070726f76656420717565727920666f72206e6f6e657860008201527f697374656e7420746f6b656e0000000000000000000000000000000000000000602082015250565b7f4552433732313a207472616e73666572206f6620746f6b656e2074686174206960008201527f73206e6f74206f776e0000000000000000000000000000000000000000000000602082015250565b7f4552433732314d657461646174613a2055524920717565727920666f72206e6f60008201527f6e6578697374656e7420746f6b656e0000000000000000000000000000000000602082015250565b7f7b226e616d65223a202200000000000000000000000000000000000000000000600082015250565b7f4552433732313a20617070726f76616c20746f2063757272656e74206f776e6560008201527f7200000000000000000000000000000000000000000000000000000000000000602082015250565b7f46495253545f574f524400000000000000000000000000000000000000000000600082015250565b7f646174613a6170706c69636174696f6e2f6a736f6e3b6261736536342c000000600082015250565b7f4552433732313a207472616e736665722063616c6c6572206973206e6f74206f60008201527f776e6572206e6f7220617070726f766564000000000000000000000000000000602082015250565b7f434f4c4f52000000000000000000000000000000000000000000000000000000600082015250565b613bcc816132b3565b8114613bd757600080fd5b50565b613be3816132c5565b8114613bee57600080fd5b50565b613bfa816132d1565b8114613c0557600080fd5b50565b613c118161331d565b8114613c1c57600080fd5b5056fe416e204e465420772f20494420257320686173206265656e206d696e74656420746f2025734142434445464748494a4b4c4d4e4f505152535455565758595a6162636465666768696a6b6c6d6e6f707172737475767778797a303132333435363738392b2fa264697066735822122037cfda3770bfb13aee73a327f94cd0624ca318b2971ad16d1ae814af0e0ecf6564736f6c634300080400333c73766720786d6c6e733d27687474703a2f2f7777772e77332e6f72672f323030302f73766727207072657365727665417370656374526174696f3d27784d696e594d696e206d656574272076696577426f783d273020302033353020333530273e3c7374796c653e2e62617365207b2066696c6c3a2077686974653b20666f6e742d66616d696c793a2073657269663b20666f6e742d73697a653a20323470783b207d3c2f7374796c653e3c726563742077696474683d273130302527206865696768743d2731303025272066696c6c3d27272f3e3c7465787420783d273530252720793d273530252720636c6173733d27626173652720646f6d696e616e742d626173656c696e653d276d6964646c652720746578742d616e63686f723d276d6964646c65273e",
  "linkReferences": {},
  "deployedLinkReferences": {}
}